:100000000C9434000C9451000C9451000C94510049
:100010000C9451000C9451000C9451000C94B103B9
:100020000C9498030C9451000C9451000C943703D9
:100030000C9451000C9451000C9451000C945100FC
:100040000C9451000C9451000C94C8030C94510072
:100050000C9400040C9467020C9451000C94510011
:100060000C9451000C94510011241FBECFEFD8E026
:10007000DEBFCDBF11E0A0E0B1E0EAEEFFE002C0DC
:1000800005900D92A831B107D9F721E0A8E1B1E0C0
:1000900001C01D92A53FB207E1F70E94BE040C9477
:1000A000F3070C9400002FE324B985B195B1809536
:1000B000892385B980E38AB920937E00089584B5A9
:1000C000816284BD85B5896085BD88EC87BD85B3B7
:1000D00085BB92E0909381001092B000E1EBF0E0DC
:1000E000808182608083E0E7F0E0808186608083A9
:1000F0009093B30084E08093B400089586E68093E3
:100100007C0010927B0083E980937A0080917A00D2
:10011000806480937A0080917A0084FFFCCF809184
:100120007900825180931F0190911F0181E09333E8
:1001300008F080E080931E0180911F0163E071E070
:1001400090E00E94880480911F0186956BE071E029
:1001500090E00C94880426B326BB611571058105D7
:10016000910599F020910001309101012095309581
:100170003093850020938400B09BFECF26B326BB2E
:100180006150710981099109E8CF0895EAECF1E025
:1001900089E0808381E2818384E2828386E08383B5
:1001A00082E1848388E18583E6EDF1E02AE0208323
:1001B00092E2918388E28283238394838583ECEAAD
:1001C000F1E022E6208391E6918380E68283238317
:1001D00094838583E0EDF1E083E68083818384E688
:1001E0008283838385E684838583E2EBF1E084E187
:1001F00090E0918380838FE090E0938382838AE014
:1002000090E09583848388E090E09783868391874C
:10021000808785E090E0938782879587848797879A
:100220008687918B808B938B828B958B848B978B1E
:10023000868B0895EAE7F0E090819F7D908380931C
:100240007C0080818062808308952F923F924F923C
:100250005F926F927F928F929F92AF92BF92CF9256
:10026000DF92EF92FF920F931F93CF93DF935C9AED
:1002700088E788BD10922001E0912001EF5FE093B4
:100280002001F0E0E653FE4F808185B968EE73E00F
:1002900080E090E00E94AB00E0912001F0E0E653A6
:1002A000FE4F808180932101412C512C312C43E160
:1002B000642E772473945CE8252E6CE2862E9924B4
:1002C0009394CEE5D1E000E911E074EFE72EFF242E
:1002D000F394E8E5CE2EE2E0DE2EF0E2AF2EF3E07E
:1002E000BF2E8091210185B9E32DF0E0EE0FFF1FB5
:1002F000EE54FE4F6081718180E090E00E94AB007F
:10030000E0912001F0E0E455FE4F80810E941A0147
:10031000E0912001F0E0EE0FFF1FEA51FE4F85E073
:1003200090E0918380838091200181708093DC0133
:10033000809120018F5F8093200180912001863081
:1003400010F010922001E0912001F0E0E653FE4F02
:100350008081809321019AE0391202C099E0392E00
:1003600084E64816510429F4B0920101A0920001DC
:1003700013C09CE2491691E0590629F4D09201017C
:10038000C092000114C088E5481682E0580631F496
:10039000F0920101E09200015C9A4BC098EE491680
:1003A00093E0590631F410930101009300015C9829
:1003B00040C080EB481684E0580629F4D093010130
:1003C000C0930001E9CF98E7491695E0590629F452
:1003D0009092010180920001EACF80E4481686E005
:1003E000580631F4709201016092000128BCD4CF0C
:1003F00090ED491697E0590639F48AEF90E0909312
:10040000010180930001D3CF98E9491698E059067D
:1004100039F488EC90E09093010180930001BCCF07
:1004200099EB49169BE0590620F088E9482E88E0B0
:10043000582E8FEF481A580A33949CE0391251CF46
:1004400088E893E19093E5018093E4015C98DF9163
:10045000CF911F910F91FF90EF90DF90CF90BF90C1
:10046000AF909F908F907F906F905F904F903F9054
:100470002F9008950E941A0180917A0080648093E1
:100480007A0080917A0084FFFCCF80917A008061AD
:1004900080937A008091790008950F931F93FC0157
:1004A000E61BF70B021B130BE09FC001E19F900DB1
:1004B000F09F900D1124FA01E61BF70BBF010E947B
:1004C000D304CB01820F931F1F910F9108951F92A8
:1004D0000F920FB60F9211242F933F934F935F9378
:1004E0006F937F938F939F93AF93BF93EF93FF93FC
:1004F000809179008093DF0181E080931A018091DF
:10050000DC01811107C080911F019091DF01869568
:10051000981768F48091DC01813009F092C08091D5
:100520001F019091DF018695891708F48AC0809198
:100530007A00877F80937A002091200130E08091BB
:10054000E4019091E50168EE73E00E94D304220F6C
:10055000331FF901EA51FE4F7183608310928500C9
:100560001092840081E080931D0187E490E09093D5
:10057000F3018093F201109223011092220180E096
:1005800090E0FC01EE0FFF1FEA51FE4F40815181C8
:100590002091220130912301240F351F3093230134
:1005A0002093220101968630910559F7809122010E
:1005B000909123019093DE018093DD01409122010F
:1005C0005091230128EE33E0429FC001439F900DDC
:1005D000529F900D112490932301809322018091CA
:1005E0002201909123016CE070E00E94D30470938B
:1005F00023016093220120912201309123018091F7
:10060000F2019091F3012817390740F48091F2012B
:100610009091F30190932301809322018091220114
:10062000909123012091F2013091F301821B930BF1
:10063000909389008093880080916F0082608093FE
:100640006F0080917A00806180937A00FF91EF9132
:10065000BF91AF919F918F917F916F915F914F91DA
:100660003F912F910F900FBE0F901F9018951F92E2
:100670000F920FB60F9211242F933F934F935F93D6
:100680006F937F938F939F93AF93BF93EF93FF935A
:1006900080918400909185009093E5018093E4011E
:1006A00086B386BB8091210185B9E0912001F0E0FD
:1006B000E455FE4F80810E941A01809120018170D3
:1006C0008093DC01809120018F5F809320018091D5
:1006D0002001863010F010922001E0912001F0E01E
:1006E000E653FE4F80818093210180916F008D7FC2
:1006F00080936F0080917A00886080937A00809167
:100700007A00806480937A0081E080931B01FF91DE
:10071000EF91BF91AF919F918F917F916F915F9179
:100720004F913F912F910F900FBE0F901F901895F2
:100730001F920F920FB60F9211248F93EF93FF9396
:10074000E0912001F0E0E653FE4F808185B91092E0
:10075000B200FF91EF918F910F900FBE0F901F90FD
:1007600018951F920F920FB60F9211248F93EF934B
:10077000FF93E0912001F0E0EA52FE4F808185B9BD
:10078000FF91EF918F910F900FBE0F901F901895D2
:100790001F920F920FB60F9211248F939F93EF9396
:1007A000FF93E0912801F09129018091C600E45D5A
:1007B000FE4F808380912A0190912B0101969093A6
:1007C0002B0180932A0180912801909129010196A3
:1007D000909329018093280180912801909129010B
:1007E0008038910520F01092290110922801FF9184
:1007F000EF919F918F910F900FBE0F901F901895C2
:100800001F920F920FB60F9211248F9381E0809365
:1008100002018F910F900FBE0F901F9018959B01B2
:10082000AC0184E0220F331F441F551F8A95D1F776
:1008300060E072E18AE790E00E94E704BA01A90152
:100840004150510961097109DB01CA0188279F7074
:10085000AA27BB27892F9A2FAB2FBB278093C500D0
:100860004093C400E1ECF0E08081886D808378944F
:100870000895909102019923E1F31092020180936F
:10088000C60008950F931F93CF93DF93EC018C0163
:10089000060F171FC017D10721F089910E94390454
:1008A000F9CFDF91CF911F910F910895CF93DF93EF
:1008B000EC0189910E94390488818111FACFDF917E
:1008C000CF910C94390480912A0190912B010895C5
:1008D0002091260130912701F901E45DFE4F8081CE
:1008E0002F5F3F4F309327012093260140912A012B
:1008F00050912B014150510950932B0140932A01F3
:100900002038310520F01092270110922601089519
:10091000EF92FF920F931F93CF93DF9300D000D0FD
:1009200000D0CDB7DEB77B019F938F9382E191E03A
:100930009F938F938E010F5F1F4F1F930F930E9402
:100940000905C7010E945604C8010E94560485E1AA
:1009500091E00E9456040F900F900F900F900F900F
:100960000F9026960FB6F894DEBF0FBECDBFDF9175
:10097000CF911F910F91FF90EF90089560E07BE47D
:1009800080E090E00E940F040E9453000E945F00EC
:100990000E94C6000E947E005C9A0E9425015C9A1B
:1009A00080E090E00895AA1BBB1B51E107C0AA1F7D
:1009B000BB1FA617B70710F0A61BB70B881F991F00
:1009C0005A95A9F780959095BC01CD010895A1E2B3
:1009D0001A2EAA1BBB1BFD010DC0AA1FBB1FEE1FB9
:1009E000FF1FA217B307E407F50720F0A21BB30B04
:1009F000E40BF50B661F771F881F991F1A9469F780
:100A000060957095809590959B01AC01BD01CF01DB
:100A10000895AEE0B0E0EFE0F5E00C94CA070D8970
:100A20001E8986E08C831A8309838FEF9FE79E835C
:100A30008D83AE01475E5F4F6F89788DCE01019641
:100A40000E942B05EF81F885E00FF11F10822E9692
:100A5000E4E00C94E607ABE0B0E0E1E3F5E00C94F1
:100A6000BC076C017B018A01FC011782168283811D
:100A700081FFCCC1CE0101963C01F6019381F701C3
:100A800093FD859193FF81917F01882309F4BAC179
:100A9000853239F493FD859193FF81917F018532F1
:100AA00029F4B60190E00E942207E7CF912C212C77
:100AB000312CFFE1F315D8F08B3279F038F4803225
:100AC00079F08332A1F4232D20611DC08D3261F0B5
:100AD000803369F4232D216016C0832D8260382E67
:100AE000E32DE4603E2E2AC0F32DF8601DC037FCD4
:100AF0002DC020ED280F2A3040F08E32B9F436FC9C
:100B000081C1232D2064322E19C036FE06C08AE032
:100B1000989E200D1124922E11C0EAE02E9E200DE9
:100B20001124222EF32DF0623F2E08C08C3621F4C2
:100B3000832D8068382E02C0883641F4F70193FD7A
:100B4000859193FF81917F018111B3CF982F9F7D74
:100B50009554933028F40C5F1F4F9FE399830DC089
:100B6000833631F0833771F0833509F059C021C0E5
:100B7000F801808189830E5F1F4F88248394912C14
:100B8000530113C02801F2E04F0E511CF801A08060
:100B9000B18036FE03C0692D70E002C06FEF7FEFB9
:100BA000C5010E9417074C018201F32DFF773F2EEC
:100BB00016C0280122E0420E511CF801A080B1802D
:100BC00036FE03C0692D70E002C06FEF7FEFC501F4
:100BD0000E940C074C01F32DF0683F2E820133FC7C
:100BE0001BC0822D90E088169906B0F4B60180E211
:100BF00090E00E9422072A94F4CFF50137FC8591FA
:100C000037FE81915F01B60190E00E94220721101A
:100C10002A9421E0821A91088114910471F7E8C0A6
:100C2000843611F0893641F5F80137FE07C060813E
:100C30007181828193810C5F1F4F08C06081718137
:100C4000072E000C880B990B0E5F1F4FF32DFF76BC
:100C50003F2E97FF09C090958095709561957F4FC5
:100C60008F4F9F4FF0683F2E2AE030E0A3010E9493
:100C70005E07882E861845C0853731F4232D2F7ED8
:100C8000B22E2AE030E025C0932D997FB92E8F3601
:100C9000C1F018F4883579F0B5C0803719F088377D
:100CA00021F0B0C0E92FE061BE2EB4FE0DC0FB2DD7
:100CB000F460BF2E09C034FE0AC0292F2660B22E70
:100CC00006C028E030E005C020E130E002C020E1AD
:100CD00032E0F801B7FE07C06081718182819381A3
:100CE0000C5F1F4F06C06081718180E090E00E5F55
:100CF0001F4FA3010E945E07882E8618FB2DFF77E9
:100D00003F2E36FE0DC0232D2E7FA22E891458F4BF
:100D100034FE0BC032FC09C0832D8E7EA82E05C088
:100D2000B82CA32C03C0B82C01C0B92CA4FE0FC052
:100D3000FE01E80DF11D8081803321F49A2D997E0A
:100D4000A92E09C0A2FE06C0B394B39404C08A2D94
:100D5000867809F0B394A3FC11C0A0FE06C0B214BB
:100D600088F4280C922C9B180EC0B21460F4B601C3
:100D700080E290E00E942207B394F7CFB21418F4F7
:100D80002B1802C0982C212CA4FE10C0B60180E3C1
:100D900090E00E942207A2FE17C0A1FC03C088E7D2
:100DA00090E002C088E590E0B6010CC08A2D8678FC
:100DB00059F0A1FE02C08BE201C080E2A7FC8DE2E7
:100DC000B60190E00E942207891438F4B60180E34E
:100DD00090E00E9422079A94F7CF8A94F301E80DDD
:100DE000F11D8081B60190E00E9422078110F5CFAD
:100DF000222009F442CEB60180E290E00E94220750
:100E00002A94F6CFF6018681978102C08FEF9FEF7B
:100E10002B96E2E10C94D807FC01059061507040DC
:100E20000110D8F7809590958E0F9F1F0895FC01B3
:100E30006150704001900110D8F7809590958E0F09
:100E40009F1F08950F931F93CF93DF93FB0123817F
:100E500021FD03C08FEF9FEF2CC022FF16C04681FB
:100E60005781248135814217530744F4A081B18111
:100E70009D012F5F3F4F318320838C9326813781E3
:100E80002F5F3F4F3783268314C08B01EC01FB019A
:100E90000084F185E02D0995892BE1F6D80116969D
:100EA0008D919C911797019617969C938E93169708
:100EB000CE01DF91CF911F910F910895FA01AA27DA
:100EC000283051F1203181F1E8946F936E7F6E5F8D
:100ED0007F4F8F4F9F4FAF4FB1E03ED0B4E03CD03B
:100EE000670F781F891F9A1FA11D680F791F8A1F1E
:100EF000911DA11D6A0F711D811D911DA11D20D085
:100F000009F468943F912AE0269F11243019305D3E
:100F10003193DEF6CF010895462F4770405D41932F
:100F2000B3E00FD0C9F7F6CF462F4F70405D4A337C
:100F300018F0495D31FD4052419302D0A9F7EACF44
:100F4000B4E0A6959795879577956795BA95C9F773
:100F500000976105710508959B01AC010A2E069466
:100F60005795479537952795BA95C9F7620F731F1F
:100F7000841F951FA01D08952F923F924F925F925C
:100F80006F927F928F929F92AF92BF92CF92DF9299
:100F9000EF92FF920F931F93CF93DF93CDB7DEB7FE
:100FA000CA1BDB0B0FB6F894DEBF0FBECDBF099492
:100FB0002A88398848885F846E847D848C849B84E9
:100FC000AA84B984C884DF80EE80FD800C811B81F7
:100FD000AA81B981CE0FD11D0FB6F894DEBF0FBE26
:0A0FE000CDBFED010895F894FFCF96
:100FEA00E8030176627573203D2000544853203D82
:080FFA0020002564000A0D002F
:00000001FF
